:100000000C9434000C9449000C9449000C94490061
:100010000C9449000C9449000C9449000C9449003C
:100020000C9449000C9449000C9449000C9449002C
:100030000C9449000C9449000C9449000C9449001C
:100040000C9449000C9449000C9449000C9449000C
:100050000C9449000C9449000C9449000C944900FC
:100060000C9449000C94490011241FBECFEFD8E036
:10007000DEBFCDBF11E0A0E0B1E0E2E3F1E002C0FD
:1000800005900D92AA35B107D9F70E9463000C9430
:1000900097000C940000FC019191992339F0809114
:1000A000C00085FFFCCF9093C600F6CF0895109254
:1000B000C50087E68093C40088E18093C10086E094
:1000C0008093C2000895CF93DF93CDB7DEB7C054BD
:1000D000D1090FB6F894DEBF0FBECDBF80E895E220
:1000E0000E94570080E091E00E944B00FE01319693
:1000F00080E08F019091C00097FFFCCF9091C600E7
:100100009D3071F4F801E80FF11D108282E491E056
:100110000E944B00C8010E944B0084E591E0E4CFAF
:100120009A3081F391938F5F8F3321F7EBCFF8945F
:02013000FFCFFF
:100132005468652047726561742048616C6C20695F
:1001420073206C697374656E696E672E20547970C2
:100152006520612073656E74656E636520616E64EF
:1001620020707265737320456E7465722E2E2E0D8B
:100172000A000D0A57697A617264204563686F65E7
:0A018200733A20000D0A0D0A000078
:00000001FF
