:100000000C9434000C943E000C943E000C943E0082
:100010000C943E000C943E000C943E000C943E0068
:100020000C943E000C943E000C943E000C943E0058
:100030000C943E000C943E000C943E000C943E0048
:100040000C943E000C943E000C943E000C943E0038
:100050000C943E000C943E000C943E000C943E0028
:100060000C943E000C943E0011241FBECFEFD8E04C
:10007000DEBFCDBF0E94FC000C9437010C94000041
:100080000F931F938B019C01DC01CB0180589B4790
:10009000A14EBF4FBC01CD0143E0660F771F881F03
:1000A000991F4A95D1F7A9019801E4E0220F331F67
:1000B000441F551FEA95D1F70E941501BA01A90105
:1000C0004150510961097109BB27A72F962F852F30
:1000D0008093C5004093C4001F910F910895109222
:1000E0006400811104C0809164008D7F03C0809101
:1000F000640082608093640008959091C200917CB6
:100100009093C200623029F49091C200986090935D
:10011000C2009091C200413011F4906205C042309B
:1001200011F4906301C09F7C9093C200863021F44B
:100130008091C200826005C0873031F48091C20096
:1001400084608093C2000895883049F48091C20091
:1001500086608093C2008091C1008B7F0AC0893085
:1001600051F48091C20086608093C2008091C100EA
:1001700084608093C1000895E1ECF0E080818061AB
:10018000808380818860808308959091C00095FF6E
:10019000FCCF8093C60008958091C00087FFFCCFFC
:1001A0008091C6000895CF93DF93CDB7DEB728972F
:1001B0000FB6F894DEBF0FBECDBF29833A834B83C1
:1001C0005C836D837E838F83892F0E946F006C8197
:1001D0007D818E819F810E9440004A816B8189814F
:1001E0000E947D0028960FB6F894DEBF0FBECDBFEB
:1001F000DF91CF910C94BC00CF93DF93CDB7DEB7E6
:1002000028970FB6F894DEBF0FBECDBF80E0582F01
:1002100028E030E040E062EC71E080E090E00E9495
:10022000D30088E40E94C500FCCFA1E21A2EAA1BCD
:10023000BB1BFD010DC0AA1FBB1FEE1FFF1FA21796
:10024000B307E407F50720F0A21BB30BE40BF50B93
:10025000661F771F881F991F1A9469F7609570951C
:10026000809590959B01AC01BD01CF010895F89454
:02027000FFCFBE
:00000001FF
