:100000000C9434000C943E000C943E000C943E0082
:100010000C943E000C943E000C943E000C943E0068
:100020000C943E000C943E000C943E000C943E0058
:100030000C943E000C943E000C943E000C943E0048
:100040000C943E000C943E000C943E000C943E0038
:100050000C943E000C943E000C943E000C943E0028
:100060000C943E000C943E0011241FBECFEFD8E04C
:10007000DEBFCDBF0E94AC000C9401010C940000C7
:1000800020E1829FC00111249C01990F440B550B64
:1000900060E074E284EF90E00E94C00021503109DA
:1000A0003093C5002093C4000895E4E6F0E0808119
:1000B0008D7F80830895E2ECF0E080818F7B8083E8
:1000C00080818F77808380818F7D808380818F7E08
:1000D00080838081877F8083A1ECB0E08C918B7FCF
:1000E0008C938081866080830895E1ECF0E08081CC
:1000F0008061808380818860808308959091C000B2
:1001000095FFFCCF8093C60008958091C00087FFC3
:10011000FCCF8091C6000895CF93DF9300D000D02C
:1001200000D0CDB7DEB749835A836B837C83892F98
:100130000E9455008C810E9440004A816B81898118
:100140000E945B0026960FB6F894DEBF0FBECDBFAF
:10015000DF91CF910C947500CF93DF9300D000D046
:1001600000D0CDB7DEB780E8782F85E248E050E0D8
:1001700060E090E00E948C0088E40E947E00FCCF4A
:10018000052E97FB1EF400940E94D70057FD07D060
:100190000E94DF0007FC03D04EF40C94D70050956A
:1001A0004095309521953F4F4F4F5F4F0895909563
:1001B0008095709561957F4F8F4F9F4F0895A1E275
:1001C0001A2EAA1BBB1BFD010DC0AA1FBB1FEE1FD1
:1001D000FF1FA217B307E407F50720F0A21BB30B1C
:1001E000E40BF50B661F771F881F991F1A9469F798
:1001F00060957095809590959B01AC01BD01CF01F4
:060200000895F894FFCF01
:00000001FF
