:100000000C9434000C943E000C943E000C943E0082
:100010000C943E000C943E000C943E000C943E0068
:100020000C943E000C943E000C943E000C943E0058
:100030000C943E000C943E000C943E000C943E0048
:100040000C943E000C943E000C943E000C943E0038
:100050000C943E000C943E000C943E000C943E0028
:100060000C943E000C943E0011241FBECFEFD8E04C
:10007000DEBFCDBF0E9440000C9457000C940000DE
:10008000259A2D9A81E092E1AAE7B0E00197A109B3
:10009000B10911F00000FACF2D9881E092E1AAE7B2
:1000A000B0E00197A109B10961F30000FACFF8941B
:0200B000FFCF80
:00000001FF
