:100000000C9434000C943E000C943E000C943E0082
:100010000C943E000C943E000C943E000C943E0068
:100020000C943E000C943E000C943E000C943E0058
:100030000C943E000C943E000C943E000C943E0048
:100040000C943E000C943E000C943E000C943E0038
:100050000C943E000C943E000C943E000C943E0028
:100060000C943E000C943E0011241FBECFEFD8E04C
:10007000DEBFCDBF0E9440000C9457000C940000DE
:10008000259A2D982D9A0E944A002D980E944A0088
:100090000C94420002E018EC28EC38EC3A95F1F7A9
:1000A0002A95D9F71A95C1F70A95A9F70895F894F2
:0200B000FFCF80
:00000001FF
